{
  "_format": "hh-sol-artifact-1",
  "contractName": "Idenfts",
  "sourceName": "contracts/Idenfts.sol",
  "abi": [
    {
      "inputs": [],
      "stateMutability": "nonpayable",
      "type": "constructor"
    },
    {
      "anonymous": false,
      "inputs": [
        {
          "indexed": true,
          "internalType": "address",
          "name": "owner",
          "type": "address"
        },
        {
          "indexed": true,
          "internalType": "address",
          "name": "approved",
          "type": "address"
        },
        {
          "indexed": true,
          "internalType": "uint256",
          "name": "tokenId",
          "type": "uint256"
        }
      ],
      "name": "Approval",
      "type": "event"
    },
    {
      "anonymous": false,
      "inputs": [
        {
          "indexed": true,
          "internalType": "address",
          "name": "owner",
          "type": "address"
        },
        {
          "indexed": true,
          "internalType": "address",
          "name": "operator",
          "type": "address"
        },
        {
          "indexed": false,
          "internalType": "bool",
          "name": "approved",
          "type": "bool"
        }
      ],
      "name": "ApprovalForAll",
      "type": "event"
    },
    {
      "anonymous": false,
      "inputs": [
        {
          "indexed": false,
          "internalType": "uint256",
          "name": "_fromTokenId",
          "type": "uint256"
        },
        {
          "indexed": false,
          "internalType": "uint256",
          "name": "_toTokenId",
          "type": "uint256"
        }
      ],
      "name": "BatchMetadataUpdate",
      "type": "event"
    },
    {
      "anonymous": false,
      "inputs": [
        {
          "indexed": true,
          "internalType": "uint256",
          "name": "tokenId",
          "type": "uint256"
        },
        {
          "indexed": false,
          "internalType": "address",
          "name": "seller",
          "type": "address"
        },
        {
          "indexed": false,
          "internalType": "address",
          "name": "owner",
          "type": "address"
        },
        {
          "indexed": false,
          "internalType": "uint256",
          "name": "price",
          "type": "uint256"
        },
        {
          "indexed": false,
          "internalType": "bool",
          "name": "sold",
          "type": "bool"
        }
      ],
      "name": "MarketItemCreated",
      "type": "event"
    },
    {
      "anonymous": false,
      "inputs": [
        {
          "indexed": false,
          "internalType": "uint256",
          "name": "_tokenId",
          "type": "uint256"
        }
      ],
      "name": "MetadataUpdate",
      "type": "event"
    },
    {
      "anonymous": false,
      "inputs": [
        {
          "indexed": true,
          "internalType": "address",
          "name": "from",
          "type": "address"
        },
        {
          "indexed": true,
          "internalType": "address",
          "name": "to",
          "type": "address"
        },
        {
          "indexed": true,
          "internalType": "uint256",
          "name": "tokenId",
          "type": "uint256"
        }
      ],
      "name": "Transfer",
      "type": "event"
    },
    {
      "inputs": [
        {
          "internalType": "address",
          "name": "to",
          "type": "address"
        },
        {
          "internalType": "uint256",
          "name": "tokenId",
          "type": "uint256"
        }
      ],
      "name": "approve",
      "outputs": [],
      "stateMutability": "nonpayable",
      "type": "function"
    },
    {
      "inputs": [
        {
          "internalType": "address",
          "name": "owner",
          "type": "address"
        }
      ],
      "name": "balanceOf",
      "outputs": [
        {
          "internalType": "uint256",
          "name": "",
          "type": "uint256"
        }
      ],
      "stateMutability": "view",
      "type": "function"
    },
    {
      "inputs": [
        {
          "internalType": "uint256",
          "name": "tokenId",
          "type": "uint256"
        }
      ],
      "name": "createMarketSale",
      "outputs": [],
      "stateMutability": "payable",
      "type": "function"
    },
    {
      "inputs": [
        {
          "internalType": "string",
          "name": "tokenURI",
          "type": "string"
        },
        {
          "internalType": "uint256",
          "name": "price",
          "type": "uint256"
        }
      ],
      "name": "createToken",
      "outputs": [
        {
          "internalType": "uint256",
          "name": "",
          "type": "uint256"
        }
      ],
      "stateMutability": "payable",
      "type": "function"
    },
    {
      "inputs": [],
      "name": "fetchItemsListed",
      "outputs": [
        {
          "components": [
            {
              "internalType": "uint256",
              "name": "tokenId",
              "type": "uint256"
            },
            {
              "internalType": "address payable",
              "name": "seller",
              "type": "address"
            },
            {
              "internalType": "address payable",
              "name": "owner",
              "type": "address"
            },
            {
              "internalType": "uint256",
              "name": "price",
              "type": "uint256"
            },
            {
              "internalType": "bool",
              "name": "sold",
              "type": "bool"
            }
          ],
          "internalType": "struct Idenfts.MarketItem[]",
          "name": "",
          "type": "tuple[]"
        }
      ],
      "stateMutability": "view",
      "type": "function"
    },
    {
      "inputs": [],
      "name": "fetchMarketItems",
      "outputs": [
        {
          "components": [
            {
              "internalType": "uint256",
              "name": "tokenId",
              "type": "uint256"
            },
            {
              "internalType": "address payable",
              "name": "seller",
              "type": "address"
            },
            {
              "internalType": "address payable",
              "name": "owner",
              "type": "address"
            },
            {
              "internalType": "uint256",
              "name": "price",
              "type": "uint256"
            },
            {
              "internalType": "bool",
              "name": "sold",
              "type": "bool"
            }
          ],
          "internalType": "struct Idenfts.MarketItem[]",
          "name": "",
          "type": "tuple[]"
        }
      ],
      "stateMutability": "view",
      "type": "function"
    },
    {
      "inputs": [],
      "name": "fetchMyNFTs",
      "outputs": [
        {
          "components": [
            {
              "internalType": "uint256",
              "name": "tokenId",
              "type": "uint256"
            },
            {
              "internalType": "address payable",
              "name": "seller",
              "type": "address"
            },
            {
              "internalType": "address payable",
              "name": "owner",
              "type": "address"
            },
            {
              "internalType": "uint256",
              "name": "price",
              "type": "uint256"
            },
            {
              "internalType": "bool",
              "name": "sold",
              "type": "bool"
            }
          ],
          "internalType": "struct Idenfts.MarketItem[]",
          "name": "",
          "type": "tuple[]"
        }
      ],
      "stateMutability": "view",
      "type": "function"
    },
    {
      "inputs": [
        {
          "internalType": "uint256",
          "name": "tokenId",
          "type": "uint256"
        }
      ],
      "name": "getApproved",
      "outputs": [
        {
          "internalType": "address",
          "name": "",
          "type": "address"
        }
      ],
      "stateMutability": "view",
      "type": "function"
    },
    {
      "inputs": [],
      "name": "getListingPrice",
      "outputs": [
        {
          "internalType": "uint256",
          "name": "",
          "type": "uint256"
        }
      ],
      "stateMutability": "view",
      "type": "function"
    },
    {
      "inputs": [
        {
          "internalType": "address",
          "name": "owner",
          "type": "address"
        },
        {
          "internalType": "address",
          "name": "operator",
          "type": "address"
        }
      ],
      "name": "isApprovedForAll",
      "outputs": [
        {
          "internalType": "bool",
          "name": "",
          "type": "bool"
        }
      ],
      "stateMutability": "view",
      "type": "function"
    },
    {
      "inputs": [],
      "name": "name",
      "outputs": [
        {
          "internalType": "string",
          "name": "",
          "type": "string"
        }
      ],
      "stateMutability": "view",
      "type": "function"
    },
    {
      "inputs": [
        {
          "internalType": "uint256",
          "name": "tokenId",
          "type": "uint256"
        }
      ],
      "name": "ownerOf",
      "outputs": [
        {
          "internalType": "address",
          "name": "",
          "type": "address"
        }
      ],
      "stateMutability": "view",
      "type": "function"
    },
    {
      "inputs": [
        {
          "internalType": "uint256",
          "name": "tokenId",
          "type": "uint256"
        },
        {
          "internalType": "uint256",
          "name": "price",
          "type": "uint256"
        }
      ],
      "name": "resellToken",
      "outputs": [],
      "stateMutability": "payable",
      "type": "function"
    },
    {
      "inputs": [
        {
          "internalType": "address",
          "name": "from",
          "type": "address"
        },
        {
          "internalType": "address",
          "name": "to",
          "type": "address"
        },
        {
          "internalType": "uint256",
          "name": "tokenId",
          "type": "uint256"
        }
      ],
      "name": "safeTransferFrom",
      "outputs": [],
      "stateMutability": "nonpayable",
      "type": "function"
    },
    {
      "inputs": [
        {
          "internalType": "address",
          "name": "from",
          "type": "address"
        },
        {
          "internalType": "address",
          "name": "to",
          "type": "address"
        },
        {
          "internalType": "uint256",
          "name": "tokenId",
          "type": "uint256"
        },
        {
          "internalType": "bytes",
          "name": "data",
          "type": "bytes"
        }
      ],
      "name": "safeTransferFrom",
      "outputs": [],
      "stateMutability": "nonpayable",
      "type": "function"
    },
    {
      "inputs": [
        {
          "internalType": "address",
          "name": "operator",
          "type": "address"
        },
        {
          "internalType": "bool",
          "name": "approved",
          "type": "bool"
        }
      ],
      "name": "setApprovalForAll",
      "outputs": [],
      "stateMutability": "nonpayable",
      "type": "function"
    },
    {
      "inputs": [
        {
          "internalType": "bytes4",
          "name": "interfaceId",
          "type": "bytes4"
        }
      ],
      "name": "supportsInterface",
      "outputs": [
        {
          "internalType": "bool",
          "name": "",
          "type": "bool"
        }
      ],
      "stateMutability": "view",
      "type": "function"
    },
    {
      "inputs": [],
      "name": "symbol",
      "outputs": [
        {
          "internalType": "string",
          "name": "",
          "type": "string"
        }
      ],
      "stateMutability": "view",
      "type": "function"
    },
    {
      "inputs": [
        {
          "internalType": "uint256",
          "name": "tokenId",
          "type": "uint256"
        }
      ],
      "name": "tokenURI",
      "outputs": [
        {
          "internalType": "string",
          "name": "",
          "type": "string"
        }
      ],
      "stateMutability": "view",
      "type": "function"
    },
    {
      "inputs": [
        {
          "internalType": "address",
          "name": "from",
          "type": "address"
        },
        {
          "internalType": "address",
          "name": "to",
          "type": "address"
        },
        {
          "internalType": "uint256",
          "name": "tokenId",
          "type": "uint256"
        }
      ],
      "name": "transferFrom",
      "outputs": [],
      "stateMutability": "nonpayable",
      "type": "function"
    },
    {
      "inputs": [
        {
          "internalType": "uint256",
          "name": "_listingPrice",
          "type": "uint256"
        }
      ],
      "name": "updateListingPrice",
      "outputs": [],
      "stateMutability": "payable",
      "type": "function"
    }
  ],
  "bytecode": "0x60806040526658d15e176280006009553480156200001c57600080fd5b506040518060400160405280601081526020017f4d657461766572736520546f6b656e73000000000000000000000000000000008152506040518060400160405280600481526020017f4d4554540000000000000000000000000000000000000000000000000000000081525081600090816200009a919062000370565b508060019081620000ac919062000370565b50505033600a60006101000a81548173ffffffffffffffffffffffffffffffffffffffff021916908373ffffffffffffffffffffffffffffffffffffffff16021790555062000457565b600081519050919050565b7f4e487b7100000000000000000000000000000000000000000000000000000000600052604160045260246000fd5b7f4e487b7100000000000000000000000000000000000000000000000000000000600052602260045260246000fd5b600060028204905060018216806200017857607f821691505b6020821081036200018e576200018d62000130565b5b50919050565b60008190508160005260206000209050919050565b60006020601f8301049050919050565b600082821b905092915050565b600060088302620001f87fffffffffffffffffffffffffffffffffffffffffffffffffffffffffffffffff82620001b9565b620002048683620001b9565b95508019841693508086168417925050509392505050565b6000819050919050565b6000819050919050565b6000620002516200024b62000245846200021c565b62000226565b6200021c565b9050919050565b6000819050919050565b6200026d8362000230565b620002856200027c8262000258565b848454620001c6565b825550505050565b600090565b6200029c6200028d565b620002a981848462000262565b505050565b5b81811015620002d157620002c560008262000292565b600181019050620002af565b5050565b601f8211156200032057620002ea8162000194565b620002f584620001a9565b8101602085101562000305578190505b6200031d6200031485620001a9565b830182620002ae565b50505b505050565b600082821c905092915050565b6000620003456000198460080262000325565b1980831691505092915050565b600062000360838362000332565b9150826002028217905092915050565b6200037b82620000f6565b67ffffffffffffffff81111562000397576200039662000101565b5b620003a382546200015f565b620003b0828285620002d5565b600060209050601f831160018114620003e85760008415620003d3578287015190505b620003df858262000352565b8655506200044f565b601f198416620003f88662000194565b60005b828110156200042257848901518255600182019150602085019450602081019050620003fb565b868310156200044257848901516200043e601f89168262000332565b8355505b6001600288020188555050505b505050505050565b6142cb80620004676000396000f3fe60806040526004361061012a5760003560e01c80636352211e116100ab578063ae677aa31161006f578063ae677aa3146103f9578063b88d4fde14610415578063be9af5361461043e578063c87b56dd1461045a578063e219fc7514610497578063e985e9c5146104b35761012a565b80636352211e146102fb57806370a082311461033857806372b3b6201461037557806395d89b41146103a5578063a22cb465146103d05761012a565b806312e85585116100f257806312e8558514610228578063202e37401461025357806323b872dd1461027e57806342842e0e146102a757806345f8fa80146102d05761012a565b806301ffc9a71461012f57806306fdde031461016c578063081812fc14610197578063095ea7b3146101d45780630f08efe0146101fd575b600080fd5b34801561013b57600080fd5b5061015660048036038101906101519190612b8f565b6104f0565b6040516101639190612bd7565b60405180910390f35b34801561017857600080fd5b50610181610551565b60405161018e9190612c82565b60405180910390f35b3480156101a357600080fd5b506101be60048036038101906101b99190612cda565b6105e3565b6040516101cb9190612d48565b60405180910390f35b3480156101e057600080fd5b506101fb60048036038101906101f69190612d8f565b610629565b005b34801561020957600080fd5b50610212610740565b60405161021f9190612f25565b60405180910390f35b34801561023457600080fd5b5061023d6109a8565b60405161024a9190612f56565b60405180910390f35b34801561025f57600080fd5b506102686109b2565b6040516102759190612f25565b60405180910390f35b34801561028a57600080fd5b506102a560048036038101906102a09190612f71565b610c9e565b005b3480156102b357600080fd5b506102ce60048036038101906102c99190612f71565b610cfe565b005b3480156102dc57600080fd5b506102e5610d1e565b6040516102f29190612f25565b60405180910390f35b34801561030757600080fd5b50610322600480360381019061031d9190612cda565b61100a565b60405161032f9190612d48565b60405180910390f35b34801561034457600080fd5b5061035f600480360381019061035a9190612fc4565b611090565b60405161036c9190612f56565b60405180910390f35b61038f600480360381019061038a9190613126565b611147565b60405161039c9190612f56565b60405180910390f35b3480156103b157600080fd5b506103ba611189565b6040516103c79190612c82565b60405180910390f35b3480156103dc57600080fd5b506103f760048036038101906103f291906131ae565b61121b565b005b610413600480360381019061040e9190612cda565b611231565b005b34801561042157600080fd5b5061043c6004803603810190610437919061328f565b6112cb565b005b61045860048036038101906104539190612cda565b61132d565b005b34801561046657600080fd5b50610481600480360381019061047c9190612cda565b611565565b60405161048e9190612c82565b60405180910390f35b6104b160048036038101906104ac9190613312565b611677565b005b3480156104bf57600080fd5b506104da60048036038101906104d59190613352565b61186c565b6040516104e79190612bd7565b60405180910390f35b6000634906490660e01b7bffffffffffffffffffffffffffffffffffffffffffffffffffffffff1916827bffffffffffffffffffffffffffffffffffffffffffffffffffffffff1916148061054a575061054982611900565b5b9050919050565b606060008054610560906133c1565b80601f016020809104026020016040519081016040528092919081815260200182805461058c906133c1565b80156105d95780601f106105ae576101008083540402835291602001916105d9565b820191906000526020600020905b8154815290600101906020018083116105bc57829003601f168201915b5050505050905090565b60006105ee826119e2565b6004600083815260200190815260200160002060009054906101000a900473ffffffffffffffffffffffffffffffffffffffff169050919050565b60006106348261100a565b90508073ffffffffffffffffffffffffffffffffffffffff168373ffffffffffffffffffffffffffffffffffffffff16036106a4576040517f08c379a000000000000000000000000000000000000000000000000000000000815260040161069b90613464565b60405180910390fd5b8073ffffffffffffffffffffffffffffffffffffffff166106c3611a2d565b73ffffffffffffffffffffffffffffffffffffffff1614806106f257506106f1816106ec611a2d565b61186c565b5b610731576040517f08c379a0000000000000000000000000000000000000000000000000000000008152600401610728906134f6565b60405180910390fd5b61073b8383611a35565b505050565b6060600061074e6007611aee565b9050600061075c6008611aee565b6107666007611aee565b6107709190613545565b90506000808267ffffffffffffffff81111561078f5761078e612ffb565b5b6040519080825280602002602001820160405280156107c857816020015b6107b5612ac6565b8152602001906001900390816107ad5790505b50905060005b8481101561099d573073ffffffffffffffffffffffffffffffffffffffff16600b60006001846107fe9190613579565b815260200190815260200160002060020160009054906101000a900473ffffffffffffffffffffffffffffffffffffffff1673ffffffffffffffffffffffffffffffffffffffff160361098a57600060018261085a9190613579565b90506000600b60008381526020019081526020016000209050806040518060a0016040529081600082015481526020016001820160009054906101000a900473ffffffffffffffffffffffffffffffffffffffff1673ffffffffffffffffffffffffffffffffffffffff1673ffffffffffffffffffffffffffffffffffffffff1681526020016002820160009054906101000a900473ffffffffffffffffffffffffffffffffffffffff1673ffffffffffffffffffffffffffffffffffffffff1673ffffffffffffffffffffffffffffffffffffffff168152602001600382015481526020016004820160009054906101000a900460ff16151515158152505084868151811061096d5761096c6135ad565b5b60200260200101819052506001856109859190613579565b945050505b8080610995906135dc565b9150506107ce565b508094505050505090565b6000600954905090565b606060006109c06007611aee565b905060008060005b83811015610a68573373ffffffffffffffffffffffffffffffffffffffff16600b60006001846109f89190613579565b815260200190815260200160002060020160009054906101000a900473ffffffffffffffffffffffffffffffffffffffff1673ffffffffffffffffffffffffffffffffffffffff1603610a5557600183610a529190613579565b92505b8080610a60906135dc565b9150506109c8565b5060008267ffffffffffffffff811115610a8557610a84612ffb565b5b604051908082528060200260200182016040528015610abe57816020015b610aab612ac6565b815260200190600190039081610aa35790505b50905060005b84811015610c93573373ffffffffffffffffffffffffffffffffffffffff16600b6000600184610af49190613579565b815260200190815260200160002060020160009054906101000a900473ffffffffffffffffffffffffffffffffffffffff1673ffffffffffffffffffffffffffffffffffffffff1603610c80576000600182610b509190613579565b90506000600b60008381526020019081526020016000209050806040518060a0016040529081600082015481526020016001820160009054906101000a900473ffffffffffffffffffffffffffffffffffffffff1673ffffffffffffffffffffffffffffffffffffffff1673ffffffffffffffffffffffffffffffffffffffff1681526020016002820160009054906101000a900473ffffffffffffffffffffffffffffffffffffffff1673ffffffffffffffffffffffffffffffffffffffff1673ffffffffffffffffffffffffffffffffffffffff168152602001600382015481526020016004820160009054906101000a900460ff161515151581525050848681518110610c6357610c626135ad565b5b6020026020010181905250600185610c7b9190613579565b945050505b8080610c8b906135dc565b915050610ac4565b508094505050505090565b610caf610ca9611a2d565b82611afc565b610cee576040517f08c379a0000000000000000000000000000000000000000000000000000000008152600401610ce590613696565b60405180910390fd5b610cf9838383611b91565b505050565b610d19838383604051806020016040528060008152506112cb565b505050565b60606000610d2c6007611aee565b905060008060005b83811015610dd4573373ffffffffffffffffffffffffffffffffffffffff16600b6000600184610d649190613579565b815260200190815260200160002060010160009054906101000a900473ffffffffffffffffffffffffffffffffffffffff1673ffffffffffffffffffffffffffffffffffffffff1603610dc157600183610dbe9190613579565b92505b8080610dcc906135dc565b915050610d34565b5060008267ffffffffffffffff811115610df157610df0612ffb565b5b604051908082528060200260200182016040528015610e2a57816020015b610e17612ac6565b815260200190600190039081610e0f5790505b50905060005b84811015610fff573373ffffffffffffffffffffffffffffffffffffffff16600b6000600184610e609190613579565b815260200190815260200160002060010160009054906101000a900473ffffffffffffffffffffffffffffffffffffffff1673ffffffffffffffffffffffffffffffffffffffff1603610fec576000600182610ebc9190613579565b90506000600b60008381526020019081526020016000209050806040518060a0016040529081600082015481526020016001820160009054906101000a900473ffffffffffffffffffffffffffffffffffffffff1673ffffffffffffffffffffffffffffffffffffffff1673ffffffffffffffffffffffffffffffffffffffff1681526020016002820160009054906101000a900473ffffffffffffffffffffffffffffffffffffffff1673ffffffffffffffffffffffffffffffffffffffff1673ffffffffffffffffffffffffffffffffffffffff168152602001600382015481526020016004820160009054906101000a900460ff161515151581525050848681518110610fcf57610fce6135ad565b5b6020026020010181905250600185610fe79190613579565b945050505b8080610ff7906135dc565b915050610e30565b508094505050505090565b60008061101683611e8a565b9050600073ffffffffffffffffffffffffffffffffffffffff168173ffffffffffffffffffffffffffffffffffffffff1603611087576040517f08c379a000000000000000000000000000000000000000000000000000000000815260040161107e90613702565b60405180910390fd5b80915050919050565b60008073ffffffffffffffffffffffffffffffffffffffff168273ffffffffffffffffffffffffffffffffffffffff1603611100576040517f08c379a00000000000000000000000000000000000000000000000000000000081526004016110f790613794565b60405180910390fd5b600360008373ffffffffffffffffffffffffffffffffffffffff1673ffffffffffffffffffffffffffffffffffffffff168152602001908152602001600020549050919050565b60006111536007611ec7565b600061115f6007611aee565b905061116b3382611edd565b61117581856120fa565b61117f818461219e565b8091505092915050565b606060018054611198906133c1565b80601f01602080910402602001604051908101604052809291908181526020018280546111c4906133c1565b80156112115780601f106111e657610100808354040283529160200191611211565b820191906000526020600020905b8154815290600101906020018083116111f457829003601f168201915b5050505050905090565b61122d611226611a2d565b83836123a1565b5050565b3373ffffffffffffffffffffffffffffffffffffffff16600a60009054906101000a900473ffffffffffffffffffffffffffffffffffffffff1673ffffffffffffffffffffffffffffffffffffffff16146112c1576040517f08c379a00000000000000000000000000000000000000000000000000000000081526004016112b890613826565b60405180910390fd5b8060098190555050565b6112dc6112d6611a2d565b83611afc565b61131b576040517f08c379a000000000000000000000000000000000000000000000000000000000815260040161131290613696565b60405180910390fd5b6113278484848461250d565b50505050565b6000600b600083815260200190815260200160002060030154905080341461138a576040517f08c379a0000000000000000000000000000000000000000000000000000000008152600401611381906138b8565b60405180910390fd5b33600b600084815260200190815260200160002060020160006101000a81548173ffffffffffffffffffffffffffffffffffffffff021916908373ffffffffffffffffffffffffffffffffffffffff1602179055506001600b600084815260200190815260200160002060040160006101000a81548160ff0219169083151502179055506000600b600084815260200190815260200160002060010160006101000a81548173ffffffffffffffffffffffffffffffffffffffff021916908373ffffffffffffffffffffffffffffffffffffffff16021790555061146e6008611ec7565b611479303384611b91565b600a60009054906101000a900473ffffffffffffffffffffffffffffffffffffffff1673ffffffffffffffffffffffffffffffffffffffff166108fc6009549081150290604051600060405180830381858888f193505050501580156114e3573d6000803e3d6000fd5b50600b600083815260200190815260200160002060010160009054906101000a900473ffffffffffffffffffffffffffffffffffffffff1673ffffffffffffffffffffffffffffffffffffffff166108fc349081150290604051600060405180830381858888f19350505050158015611560573d6000803e3d6000fd5b505050565b6060611570826119e2565b6000600660008481526020019081526020016000208054611590906133c1565b80601f01602080910402602001604051908101604052809291908181526020018280546115bc906133c1565b80156116095780601f106115de57610100808354040283529160200191611609565b820191906000526020600020905b8154815290600101906020018083116115ec57829003601f168201915b50505050509050600061161a612569565b9050600081510361162f578192505050611672565b60008251111561166457808260405160200161164c929190613914565b60405160208183030381529060405292505050611672565b61166d84612580565b925050505b919050565b3373ffffffffffffffffffffffffffffffffffffffff16600b600084815260200190815260200160002060020160009054906101000a900473ffffffffffffffffffffffffffffffffffffffff1673ffffffffffffffffffffffffffffffffffffffff161461171b576040517f08c379a0000000000000000000000000000000000000000000000000000000008152600401611712906139aa565b60405180910390fd5b600954341461175f576040517f08c379a000000000000000000000000000000000000000000000000000000000815260040161175690613a3c565b60405180910390fd5b6000600b600084815260200190815260200160002060040160006101000a81548160ff02191690831515021790555080600b60008481526020019081526020016000206003018190555033600b600084815260200190815260200160002060010160006101000a81548173ffffffffffffffffffffffffffffffffffffffff021916908373ffffffffffffffffffffffffffffffffffffffff16021790555030600b600084815260200190815260200160002060020160006101000a81548173ffffffffffffffffffffffffffffffffffffffff021916908373ffffffffffffffffffffffffffffffffffffffff16021790555061185d60086125e8565b611868333084611b91565b5050565b6000600560008473ffffffffffffffffffffffffffffffffffffffff1673ffffffffffffffffffffffffffffffffffffffff16815260200190815260200160002060008373ffffffffffffffffffffffffffffffffffffffff1673ffffffffffffffffffffffffffffffffffffffff16815260200190815260200160002060009054906101000a900460ff16905092915050565b60007f80ac58cd000000000000000000000000000000000000000000000000000000007bffffffffffffffffffffffffffffffffffffffffffffffffffffffff1916827bffffffffffffffffffffffffffffffffffffffffffffffffffffffff191614806119cb57507f5b5e139f000000000000000000000000000000000000000000000000000000007bffffffffffffffffffffffffffffffffffffffffffffffffffffffff1916827bffffffffffffffffffffffffffffffffffffffffffffffffffffffff1916145b806119db57506119da82612644565b5b9050919050565b6119eb816126ae565b611a2a576040517f08c379a0000000000000000000000000000000000000000000000000000000008152600401611a2190613702565b60405180910390fd5b50565b600033905090565b816004600083815260200190815260200160002060006101000a81548173ffffffffffffffffffffffffffffffffffffffff021916908373ffffffffffffffffffffffffffffffffffffffff160217905550808273ffffffffffffffffffffffffffffffffffffffff16611aa88361100a565b73ffffffffffffffffffffffffffffffffffffffff167f8c5be1e5ebec7d5bd14f71427d1e84f3dd0314c0f7b2291e5b200ac8c7c3b92560405160405180910390a45050565b600081600001549050919050565b600080611b088361100a565b90508073ffffffffffffffffffffffffffffffffffffffff168473ffffffffffffffffffffffffffffffffffffffff161480611b4a5750611b49818561186c565b5b80611b8857508373ffffffffffffffffffffffffffffffffffffffff16611b70846105e3565b73ffffffffffffffffffffffffffffffffffffffff16145b91505092915050565b8273ffffffffffffffffffffffffffffffffffffffff16611bb18261100a565b73ffffffffffffffffffffffffffffffffffffffff1614611c07576040517f08c379a0000000000000000000000000000000000000000000000000000000008152600401611bfe90613ace565b60405180910390fd5b600073ffffffffffffffffffffffffffffffffffffffff168273ffffffffffffffffffffffffffffffffffffffff1603611c76576040517f08c379a0000000000000000000000000000000000000000000000000000000008152600401611c6d90613b60565b60405180910390fd5b611c8383838360016126ef565b8273ffffffffffffffffffffffffffffffffffffffff16611ca38261100a565b73ffffffffffffffffffffffffffffffffffffffff1614611cf9576040517f08c379a0000000000000000000000000000000000000000000000000000000008152600401611cf090613ace565b60405180910390fd5b6004600082815260200190815260200160002060006101000a81549073ffffffffffffffffffffffffffffffffffffffff02191690556001600360008573ffffffffffffffffffffffffffffffffffffffff1673ffffffffffffffffffffffffffffffffffffffff168152602001908152602001600020600082825403925050819055506001600360008473ffffffffffffffffffffffffffffffffffffffff1673ffffffffffffffffffffffffffffffffffffffff16815260200190815260200160002060008282540192505081905550816002600083815260200190815260200160002060006101000a81548173ffffffffffffffffffffffffffffffffffffffff021916908373ffffffffffffffffffffffffffffffffffffffff160217905550808273ffffffffffffffffffffffffffffffffffffffff168473ffffffffffffffffffffffffffffffffffffffff167fddf252ad1be2c89b69c2b068fc378daa952ba7f163c4a11628f55a4df523b3ef60405160405180910390a4611e8583838360016126f5565b505050565b60006002600083815260200190815260200160002060009054906101000a900473ffffffffffffffffffffffffffffffffffffffff169050919050565b6001816000016000828254019250508190555050565b600073ffffffffffffffffffffffffffffffffffffffff168273ffffffffffffffffffffffffffffffffffffffff1603611f4c576040517f08c379a0000000000000000000000000000000000000000000000000000000008152600401611f4390613bcc565b60405180910390fd5b611f55816126ae565b15611f95576040517f08c379a0000000000000000000000000000000000000000000000000000000008152600401611f8c90613c38565b60405180910390fd5b611fa36000838360016126ef565b611fac816126ae565b15611fec576040517f08c379a0000000000000000000000000000000000000000000000000000000008152600401611fe390613c38565b60405180910390fd5b6001600360008473ffffffffffffffffffffffffffffffffffffffff1673ffffffffffffffffffffffffffffffffffffffff16815260200190815260200160002060008282540192505081905550816002600083815260200190815260200160002060006101000a81548173ffffffffffffffffffffffffffffffffffffffff021916908373ffffffffffffffffffffffffffffffffffffffff160217905550808273ffffffffffffffffffffffffffffffffffffffff16600073ffffffffffffffffffffffffffffffffffffffff167fddf252ad1be2c89b69c2b068fc378daa952ba7f163c4a11628f55a4df523b3ef60405160405180910390a46120f66000838360016126f5565b5050565b612103826126ae565b612142576040517f08c379a000000000000000000000000000000000000000000000000000000000815260040161213990613cca565b60405180910390fd5b806006600084815260200190815260200160002090816121629190613e96565b507ff8e1a15aba9398e019f0b49df1a4fde98ee17ae345cb5f6b5e2c27f5033e8ce7826040516121929190612f56565b60405180910390a15050565b600081116121e1576040517f08c379a00000000000000000000000000000000000000000000000000000000081526004016121d890613fb4565b60405180910390fd5b6009543414612225576040517f08c379a000000000000000000000000000000000000000000000000000000000815260040161221c90613a3c565b60405180910390fd5b6040518060a001604052808381526020013373ffffffffffffffffffffffffffffffffffffffff1681526020013073ffffffffffffffffffffffffffffffffffffffff16815260200182815260200160001515815250600b60008481526020019081526020016000206000820151816000015560208201518160010160006101000a81548173ffffffffffffffffffffffffffffffffffffffff021916908373ffffffffffffffffffffffffffffffffffffffff16021790555060408201518160020160006101000a81548173ffffffffffffffffffffffffffffffffffffffff021916908373ffffffffffffffffffffffffffffffffffffffff1602179055506060820151816003015560808201518160040160006101000a81548160ff02191690831515021790555090505061235e333084611b91565b817fb640004f1d14576d0c209e240cad0410e0d8c0c33a09375861fbadae2588a98d33308460006040516123959493929190613fd4565b60405180910390a25050565b8173ffffffffffffffffffffffffffffffffffffffff168373ffffffffffffffffffffffffffffffffffffffff160361240f576040517f08c379a000000000000000000000000000000000000000000000000000000000815260040161240690614065565b60405180910390fd5b80600560008573ffffffffffffffffffffffffffffffffffffffff1673ffffffffffffffffffffffffffffffffffffffff16815260200190815260200160002060008473ffffffffffffffffffffffffffffffffffffffff1673ffffffffffffffffffffffffffffffffffffffff16815260200190815260200160002060006101000a81548160ff0219169083151502179055508173ffffffffffffffffffffffffffffffffffffffff168373ffffffffffffffffffffffffffffffffffffffff167f17307eab39ab6107e8899845ad3d59bd9653f200f220920489ca2b5937696c31836040516125009190612bd7565b60405180910390a3505050565b612518848484611b91565b612524848484846126fb565b612563576040517f08c379a000000000000000000000000000000000000000000000000000000000815260040161255a906140f7565b60405180910390fd5b50505050565b606060405180602001604052806000815250905090565b606061258b826119e2565b6000612595612569565b905060008151116125b557604051806020016040528060008152506125e0565b806125bf84612882565b6040516020016125d0929190613914565b6040516020818303038152906040525b915050919050565b60008160000154905060008111612634576040517f08c379a000000000000000000000000000000000000000000000000000000000815260040161262b90614163565b60405180910390fd5b6001810382600001819055505050565b60007f01ffc9a7000000000000000000000000000000000000000000000000000000007bffffffffffffffffffffffffffffffffffffffffffffffffffffffff1916827bffffffffffffffffffffffffffffffffffffffffffffffffffffffff1916149050919050565b60008073ffffffffffffffffffffffffffffffffffffffff166126d083611e8a565b73ffffffffffffffffffffffffffffffffffffffff1614159050919050565b50505050565b50505050565b600061271c8473ffffffffffffffffffffffffffffffffffffffff16612950565b15612875578373ffffffffffffffffffffffffffffffffffffffff1663150b7a02612745611a2d565b8786866040518563ffffffff1660e01b815260040161276794939291906141d8565b6020604051808303816000875af19250505080156127a357506040513d601f19601f820116820180604052508101906127a09190614239565b60015b612825573d80600081146127d3576040519150601f19603f3d011682016040523d82523d6000602084013e6127d8565b606091505b50600081510361281d576040517f08c379a0000000000000000000000000000000000000000000000000000000008152600401612814906140f7565b60405180910390fd5b805181602001fd5b63150b7a0260e01b7bffffffffffffffffffffffffffffffffffffffffffffffffffffffff1916817bffffffffffffffffffffffffffffffffffffffffffffffffffffffff19161491505061287a565b600190505b949350505050565b60606000600161289184612973565b01905060008167ffffffffffffffff8111156128b0576128af612ffb565b5b6040519080825280601f01601f1916602001820160405280156128e25781602001600182028036833780820191505090505b509050600082602001820190505b600115612945578080600190039150507f3031323334353637383961626364656600000000000000000000000000000000600a86061a8153600a858161293957612938614266565b5b049450600085036128f0575b819350505050919050565b6000808273ffffffffffffffffffffffffffffffffffffffff163b119050919050565b600080600090507a184f03e93ff9f4daa797ed6e38ed64bf6a1f01000000000000000083106129d1577a184f03e93ff9f4daa797ed6e38ed64bf6a1f01000000000000000083816129c7576129c6614266565b5b0492506040810190505b6d04ee2d6d415b85acef81000000008310612a0e576d04ee2d6d415b85acef81000000008381612a0457612a03614266565b5b0492506020810190505b662386f26fc100008310612a3d57662386f26fc100008381612a3357612a32614266565b5b0492506010810190505b6305f5e1008310612a66576305f5e1008381612a5c57612a5b614266565b5b0492506008810190505b6127108310612a8b576127108381612a8157612a80614266565b5b0492506004810190505b60648310612aae5760648381612aa457612aa3614266565b5b0492506002810190505b600a8310612abd576001810190505b80915050919050565b6040518060a0016040528060008152602001600073ffffffffffffffffffffffffffffffffffffffff168152602001600073ffffffffffffffffffffffffffffffffffffffff168152602001600081526020016000151581525090565b6000604051905090565b600080fd5b600080fd5b60007fffffffff0000000000000000000000000000000000000000000000000000000082169050919050565b612b6c81612b37565b8114612b7757600080fd5b50565b600081359050612b8981612b63565b92915050565b600060208284031215612ba557612ba4612b2d565b5b6000612bb384828501612b7a565b91505092915050565b60008115159050919050565b612bd181612bbc565b82525050565b6000602082019050612bec6000830184612bc8565b92915050565b600081519050919050565b600082825260208201905092915050565b60005b83811015612c2c578082015181840152602081019050612c11565b60008484015250505050565b6000601f19601f8301169050919050565b6000612c5482612bf2565b612c5e8185612bfd565b9350612c6e818560208601612c0e565b612c7781612c38565b840191505092915050565b60006020820190508181036000830152612c9c8184612c49565b905092915050565b6000819050919050565b612cb781612ca4565b8114612cc257600080fd5b50565b600081359050612cd481612cae565b92915050565b600060208284031215612cf057612cef612b2d565b5b6000612cfe84828501612cc5565b91505092915050565b600073ffffffffffffffffffffffffffffffffffffffff82169050919050565b6000612d3282612d07565b9050919050565b612d4281612d27565b82525050565b6000602082019050612d5d6000830184612d39565b92915050565b612d6c81612d27565b8114612d7757600080fd5b50565b600081359050612d8981612d63565b92915050565b60008060408385031215612da657612da5612b2d565b5b6000612db485828601612d7a565b9250506020612dc585828601612cc5565b9150509250929050565b600081519050919050565b600082825260208201905092915050565b6000819050602082019050919050565b612e0481612ca4565b82525050565b6000612e1582612d07565b9050919050565b612e2581612e0a565b82525050565b612e3481612bbc565b82525050565b60a082016000820151612e506000850182612dfb565b506020820151612e636020850182612e1c565b506040820151612e766040850182612e1c565b506060820151612e896060850182612dfb565b506080820151612e9c6080850182612e2b565b50505050565b6000612eae8383612e3a565b60a08301905092915050565b6000602082019050919050565b6000612ed282612dcf565b612edc8185612dda565b9350612ee783612deb565b8060005b83811015612f18578151612eff8882612ea2565b9750612f0a83612eba565b925050600181019050612eeb565b5085935050505092915050565b60006020820190508181036000830152612f3f8184612ec7565b905092915050565b612f5081612ca4565b82525050565b6000602082019050612f6b6000830184612f47565b92915050565b600080600060608486031215612f8a57612f89612b2d565b5b6000612f9886828701612d7a565b9350506020612fa986828701612d7a565b9250506040612fba86828701612cc5565b9150509250925092565b600060208284031215612fda57612fd9612b2d565b5b6000612fe884828501612d7a565b91505092915050565b600080fd5b600080fd5b7f4e487b7100000000000000000000000000000000000000000000000000000000600052604160045260246000fd5b61303382612c38565b810181811067ffffffffffffffff8211171561305257613051612ffb565b5b80604052505050565b6000613065612b23565b9050613071828261302a565b919050565b600067ffffffffffffffff82111561309157613090612ffb565b5b61309a82612c38565b9050602081019050919050565b82818337600083830152505050565b60006130c96130c484613076565b61305b565b9050828152602081018484840111156130e5576130e4612ff6565b5b6130f08482856130a7565b509392505050565b600082601f83011261310d5761310c612ff1565b5b813561311d8482602086016130b6565b91505092915050565b6000806040838503121561313d5761313c612b2d565b5b600083013567ffffffffffffffff81111561315b5761315a612b32565b5b613167858286016130f8565b925050602061317885828601612cc5565b9150509250929050565b61318b81612bbc565b811461319657600080fd5b50565b6000813590506131a881613182565b92915050565b600080604083850312156131c5576131c4612b2d565b5b60006131d385828601612d7a565b92505060206131e485828601613199565b9150509250929050565b600067ffffffffffffffff82111561320957613208612ffb565b5b61321282612c38565b9050602081019050919050565b600061323261322d846131ee565b61305b565b90508281526020810184848401111561324e5761324d612ff6565b5b6132598482856130a7565b509392505050565b600082601f83011261327657613275612ff1565b5b813561328684826020860161321f565b91505092915050565b600080600080608085870312156132a9576132a8612b2d565b5b60006132b787828801612d7a565b94505060206132c887828801612d7a565b93505060406132d987828801612cc5565b925050606085013567ffffffffffffffff8111156132fa576132f9612b32565b5b61330687828801613261565b91505092959194509250565b6000806040838503121561332957613328612b2d565b5b600061333785828601612cc5565b925050602061334885828601612cc5565b9150509250929050565b6000806040838503121561336957613368612b2d565b5b600061337785828601612d7a565b925050602061338885828601612d7a565b9150509250929050565b7f4e487b7100000000000000000000000000000000000000000000000000000000600052602260045260246000fd5b600060028204905060018216806133d957607f821691505b6020821081036133ec576133eb613392565b5b50919050565b7f4552433732313a20617070726f76616c20746f2063757272656e74206f776e6560008201527f7200000000000000000000000000000000000000000000000000000000000000602082015250565b600061344e602183612bfd565b9150613459826133f2565b604082019050919050565b6000602082019050818103600083015261347d81613441565b9050919050565b7f4552433732313a20617070726f76652063616c6c6572206973206e6f7420746f60008201527f6b656e206f776e6572206f7220617070726f76656420666f7220616c6c000000602082015250565b60006134e0603d83612bfd565b91506134eb82613484565b604082019050919050565b6000602082019050818103600083015261350f816134d3565b9050919050565b7f4e487b7100000000000000000000000000000000000000000000000000000000600052601160045260246000fd5b600061355082612ca4565b915061355b83612ca4565b925082820390508181111561357357613572613516565b5b92915050565b600061358482612ca4565b915061358f83612ca4565b92508282019050808211156135a7576135a6613516565b5b92915050565b7f4e487b7100000000000000000000000000000000000000000000000000000000600052603260045260246000fd5b60006135e782612ca4565b91507fffffffffffffffffffffffffffffffffffffffffffffffffffffffffffffffff820361361957613618613516565b5b600182019050919050565b7f4552433732313a2063616c6c6572206973206e6f7420746f6b656e206f776e6560008201527f72206f7220617070726f76656400000000000000000000000000000000000000602082015250565b6000613680602d83612bfd565b915061368b82613624565b604082019050919050565b600060208201905081810360008301526136af81613673565b9050919050565b7f4552433732313a20696e76616c696420746f6b656e2049440000000000000000600082015250565b60006136ec601883612bfd565b91506136f7826136b6565b602082019050919050565b6000602082019050818103600083015261371b816136df565b9050919050565b7f4552433732313a2061646472657373207a65726f206973206e6f74206120766160008201527f6c6964206f776e65720000000000000000000000000000000000000000000000602082015250565b600061377e602983612bfd565b915061378982613722565b604082019050919050565b600060208201905081810360008301526137ad81613771565b9050919050565b7f4f6e6c79206d61726b6574706c616365206f776e65722063616e20757064617460008201527f65206c697374696e672070726963652e00000000000000000000000000000000602082015250565b6000613810603083612bfd565b915061381b826137b4565b604082019050919050565b6000602082019050818103600083015261383f81613803565b9050919050565b7f506c65617365207375626d6974207468652061736b696e67207072696365206960008201527f6e206f7264657220746f20636f6d706c65746520746865207075726368617365602082015250565b60006138a2604083612bfd565b91506138ad82613846565b604082019050919050565b600060208201905081810360008301526138d181613895565b9050919050565b600081905092915050565b60006138ee82612bf2565b6138f881856138d8565b9350613908818560208601612c0e565b80840191505092915050565b600061392082856138e3565b915061392c82846138e3565b91508190509392505050565b7f4f6e6c79206974656d206f776e65722063616e20706572666f726d207468697360008201527f206f7065726174696f6e00000000000000000000000000000000000000000000602082015250565b6000613994602a83612bfd565b915061399f82613938565b604082019050919050565b600060208201905081810360008301526139c381613987565b9050919050565b7f5072696365206d75737420626520657175616c20746f206c697374696e67207060008201527f7269636500000000000000000000000000000000000000000000000000000000602082015250565b6000613a26602483612bfd565b9150613a31826139ca565b604082019050919050565b60006020820190508181036000830152613a5581613a19565b9050919050565b7f4552433732313a207472616e736665722066726f6d20696e636f72726563742060008201527f6f776e6572000000000000000000000000000000000000000000000000000000602082015250565b6000613ab8602583612bfd565b9150613ac382613a5c565b604082019050919050565b60006020820190508181036000830152613ae781613aab565b9050919050565b7f4552433732313a207472616e7366657220746f20746865207a65726f2061646460008201527f7265737300000000000000000000000000000000000000000000000000000000602082015250565b6000613b4a602483612bfd565b9150613b5582613aee565b604082019050919050565b60006020820190508181036000830152613b7981613b3d565b9050919050565b7f4552433732313a206d696e7420746f20746865207a65726f2061646472657373600082015250565b6000613bb6602083612bfd565b9150613bc182613b80565b602082019050919050565b60006020820190508181036000830152613be581613ba9565b9050919050565b7f4552433732313a20746f6b656e20616c7265616479206d696e74656400000000600082015250565b6000613c22601c83612bfd565b9150613c2d82613bec565b602082019050919050565b60006020820190508181036000830152613c5181613c15565b9050919050565b7f45524337323155524953746f726167653a2055524920736574206f66206e6f6e60008201527f6578697374656e7420746f6b656e000000000000000000000000000000000000602082015250565b6000613cb4602e83612bfd565b9150613cbf82613c58565b604082019050919050565b60006020820190508181036000830152613ce381613ca7565b9050919050565b60008190508160005260206000209050919050565b60006020601f8301049050919050565b600082821b905092915050565b600060088302613d4c7fffffffffffffffffffffffffffffffffffffffffffffffffffffffffffffffff82613d0f565b613d568683613d0f565b95508019841693508086168417925050509392505050565b6000819050919050565b6000613d93613d8e613d8984612ca4565b613d6e565b612ca4565b9050919050565b6000819050919050565b613dad83613d78565b613dc1613db982613d9a565b848454613d1c565b825550505050565b600090565b613dd6613dc9565b613de1818484613da4565b505050565b5b81811015613e0557613dfa600082613dce565b600181019050613de7565b5050565b601f821115613e4a57613e1b81613cea565b613e2484613cff565b81016020851015613e33578190505b613e47613e3f85613cff565b830182613de6565b50505b505050565b600082821c905092915050565b6000613e6d60001984600802613e4f565b1980831691505092915050565b6000613e868383613e5c565b9150826002028217905092915050565b613e9f82612bf2565b67ffffffffffffffff811115613eb857613eb7612ffb565b5b613ec282546133c1565b613ecd828285613e09565b600060209050601f831160018114613f005760008415613eee578287015190505b613ef88582613e7a565b865550613f60565b601f198416613f0e86613cea565b60005b82811015613f3657848901518255600182019150602085019450602081019050613f11565b86831015613f535784890151613f4f601f891682613e5c565b8355505b6001600288020188555050505b505050505050565b7f5072696365206d757374206265206174206c6561737420312077656900000000600082015250565b6000613f9e601c83612bfd565b9150613fa982613f68565b602082019050919050565b60006020820190508181036000830152613fcd81613f91565b9050919050565b6000608082019050613fe96000830187612d39565b613ff66020830186612d39565b6140036040830185612f47565b6140106060830184612bc8565b95945050505050565b7f4552433732313a20617070726f766520746f2063616c6c657200000000000000600082015250565b600061404f601983612bfd565b915061405a82614019565b602082019050919050565b6000602082019050818103600083015261407e81614042565b9050919050565b7f4552433732313a207472616e7366657220746f206e6f6e20455243373231526560008201527f63656976657220696d706c656d656e7465720000000000000000000000000000602082015250565b60006140e1603283612bfd565b91506140ec82614085565b604082019050919050565b60006020820190508181036000830152614110816140d4565b9050919050565b7f436f756e7465723a2064656372656d656e74206f766572666c6f770000000000600082015250565b600061414d601b83612bfd565b915061415882614117565b602082019050919050565b6000602082019050818103600083015261417c81614140565b9050919050565b600081519050919050565b600082825260208201905092915050565b60006141aa82614183565b6141b4818561418e565b93506141c4818560208601612c0e565b6141cd81612c38565b840191505092915050565b60006080820190506141ed6000830187612d39565b6141fa6020830186612d39565b6142076040830185612f47565b8181036060830152614219818461419f565b905095945050505050565b60008151905061423381612b63565b92915050565b60006020828403121561424f5761424e612b2d565b5b600061425d84828501614224565b91505092915050565b7f4e487b7100000000000000000000000000000000000000000000000000000000600052601260045260246000fdfea2646970667358221220a3f52859e10a6cf81405dacbde71846c24e35d43da20ecd911ec057b2a1e757964736f6c63430008110033",
  "linkReferences": {},
  "deployedLinkReferences": {}
}